:10040000205405A9008520A9018521BA8A38E90868
:10041000851D68851E68851FE61ED002E61FA51E85
:100420008522A51F8523A90448A95D48A001B11E06
:10043000AA88B11EC9E0B039C950B03BC920B03458
:100440000AA8C8B9BB074888B9BB07488AA84A4A5E
:100450004A4A0AAA98290F0AA8A51C4828600868D1
:10046000851CE61ED002E61FE61ED002E61F4C26C3
:10047000044C7A044CA8044CD304C9F008862429FF
:100480000F0AAAA002B11E85258828B00BB12495B9
:100490000188B12495009009B501912488B5009197
:1004A00024E61ED002E61F60C940B010C9300829FA
:1004B0000F0AA88A28B001C89900006048A002B1BC
:1004C0001E852468290F0AA88A990000A52499018D
:1004D0000090CE8624A8290F0AAA98C9D0B056C980
:1004E000C0B04BC9B0B044C9A0B037C990B02AC998
:1004F00080B01FC970B014C960B00BC950B0029071
:100500003BB501103860B501303360B5001501F01E
:100510002C60B5001501D02560B500350149FFF00C
:100520001C60B500350149FFD013604C3D05A51C8A
:100530004828B00960A51C48289002606018A51ED4
:100540006524851EA51FE000900569FF851F606971
:1005500000851F6085288629842A0868852BD86035
:10056000A52B48A528A629A42A2860984A690175C0
:10057000009500A9007501950160984A6901A838A5
:10058000B5009400F5009500B501E900950160E61D
:100590001ED002E61F68682060056C1E0018B500BA
:1005A000790000990000B5017901009901006038D7
:1005B000B500F90000990000B501F90100990100AA
:1005C00060A41DB501912088B500912088841D602C
:1005D000A41DC8B1209500C8B1209501841D60A953
:1005E0000095009501608624C424F019B50048B533
:1005F0000148B900009500B9010095016899010012
:100600006899000060B500A8B50195019895006053
:10061000A900852485258526852760A9008518855C
:1006200019851A851B608624842520C105A62520EE
:10063000C105A624A425A90108103E8624842520EE
:10064000C105A62520C105A624A425B50159010090
:1006500008B501100E49FF189501B50049FF18694A
:10066000019500B90100101149FF18990100B90066
:100670000049FF186901990000201B06B900008598
:1006800018B901008519A01018661B661A6619664C
:1006900018900D18A51A7500851AA51B7501851BE4
:1006A00088D0E6661B661A66196618281019A90014
:1006B00038E5188518A900E5198519A900E51A85F6
:1006C0001AA900E51B851BA62520D005A62420D04D
:1006D0000560B500390000990000B50139010099A5
:1006E000010060B500190000990000B50119010072
:1006F00099010060B500590000990000B501590149
:100700000099010060984AA818360036018810F850
:1007100060984AA818B50110013876017600881053
:10072000F360984AA818760176008810F8601808D7
:10073000984AA828360036018810F9601808984AA7
:10074000A828760176008810F960B500990000B5F8
:10075000019901006056001600A100990000F60002
:10076000A100990100D6006084248AA8A62456001E
:100770001600B900008100F600B901008100D60022
:1007800060205507A001206B0560206807A00120AC
:100790006B0560A21E20C10518A001B11E6522AA2A
:1007A000C8B11E6523851F8A851E68684C6E04A229
:1007B0001E20D005E61ED002E61F608E05490754B4
:1007C00007670780078907C005CF05DE05E505D166
:1007D00006E206F3069207AE0797076A0579059CBD
:1007E000059D05AE05AF053A06250604071007046A
:0B07F0000721072D072E073B073C07E1
:00000001FF
